:100000000C942A000C9447000C9447000C94470071
:100010000C9447000C9447000C9447000C94470044
:100020000C9447000C9447000C9447000C94470034
:100030000C9447000C9447000C9447000C94470024
:100040000C9447000C9447000C9447000C94470014
:100050000C94470011241FBECFE5D8E0DEBFCDBF12
:1000600022E0A4E6B0E001C01D92A837B207E1F794
:1000700010E0A0E6B0E0E4EEF6E002C005900D92DC
:10008000A436B107D9F70E94D1010C9470030C94E7
:1000900000008091720090917300409730F480913D
:1000A000740090917500409730F081E090E090935B
:1000B0006F0080936E000895EF92FF920F931F934D
:1000C000CF93DF93EC01A0917200B0917300809107
:1000D00068009091690020916C0030916D008A1742
:1000E0009B0709F043C040916A0050916B008091DA
:1000F00074009091750048175907C1F5D901AA0FEE
:10010000BB1FAA0FBB1FAE58BF4FC901E12CF12C7A
:1001100097FD11C08D010E0D1F1DF8014081518109
:100120006281738144835583668377830197F4E00A
:10013000EF1AF108EDCF2F5F3F4F30936D00209302
:100140006C000E94FD0200E110E0B8010E948702ED
:1001500090936900809368000E94FD02B8010E949C
:10016000870290936B0080936A0044C0C901121605
:1001700013060CF03FC0009174001091750060915F
:100180006E0070916F00E6E7F0E041E050E0E08043
:10019000F180AE15BF0539F4E280F3800E151F051E
:1001A00011F461E070E04F5F5F4F3496241735071C
:1001B00074F770936F0060936E00220F331F220F4D
:1001C000331F2E583F4FE0E0F0E0019789010E0FFA
:1001D0001F1FA80144505109DA014D915D916D91A5
:1001E0007C91D8014D935D936D937C9313973497D5
:1001F000009759F7C130D105A1F044F4CD2B29F572
:100200008091740090917500019716C0C230D1059D
:1002100071F02397D1F48091720090917300019650
:1002200010C0809172009091730001970AC0809174
:1002300074009091750001969093750080937400FE
:1002400004C09093730080937200DF91CF911F914F
:100250000F91FF90EF900C944900CC990FC08091C2
:10026000640090916500892B49F48091700080FFB3
:100270004BC0109271001092700040C0CD9917C011
:100280008091640090916500892B89F480917000C1
:100290009091710062E070E00E9487020197A1F1E5
:1002A00081E090E0909371008093700029C0CE9916
:1002B0000DC08091640090916500892B39F4809184
:1002C000700080FF21C082E090E014C0CF991CC074
:1002D0008091640090916500892BB1F48091700049
:1002E0009091710062E070E00E948702019761F0D6
:1002F00083E090E0909371008093700081E090E043
:1003000090936500809364000895883091058CF483
:10031000683071050CF512BA27E030E0281B390B64
:1003200081E090E0022E01C0880F0A94EAF788BBB2
:1003300030C06830710504F512BA2FE030E0281B98
:10034000390B81E090E0022E01C0880F0A94EAF791
:1003500088BB685F7F4F1DC018BA27E030E0281BBC
:10036000390B81E090E0022E01C0880F0A94EAF771
:1003700082BB685071090DC018BA2FE030E0281B0D
:10038000390B81E090E0022E01C0880F0A94EAF751
:1003900082BB6BBB8AE18A95F1F700C012BA18BA2A
:1003A00008958FEF81BB87BB8FE08ABBC0E1D0E0AF
:1003B00004E010E078EEE72E73E0F72E12BA18BAD8
:1003C0002FEF80E792E0215080409040E1F700C09D
:1003D000000010926F0010926E000E94FD02BE019C
:1003E0000E94870290936900809368000E94FD023A
:1003F000BE010E94870290936B0080936A000E9466
:10040000FD02BE010E9487029093730080937200E8
:100410000E94FD02BE010E948702909375008093A6
:1004200074000E94FD02B8010E948702909371003F
:100430008093700010926D0010926C00809170009B
:10044000909171000E945C0080916E0090916F000D
:10045000019709F4B3CF60916C0070916D006F5FEC
:100460007F4FC7010E9487026B01109273021092A6
:10047000720280917202909173028C159D05F4F6C0
:100480001092770210927602E0917602F091770254
:1004900080916C0090916D008E179F07B4F0EE0F65
:1004A000FF1FEE0FFF1FEE58FF4F628173818081A7
:1004B00091810E9485018091760290917702019648
:1004C0009093770280937602DFCF60916A007091FB
:1004D0006B0080916800909169000E9485010E94E4
:1004E0002D018091640090916500019729F410928C
:1004F000650010926400A2CF2091720230917302C5
:100500002F5F3F4F3093730220937202B2CF97FB5D
:10051000072E16F4009407D077FD09D00E949B02A5
:1005200007FC05D03EF4909581959F4F08957095F6
:1005300061957F4F0895AA1BBB1B51E107C0AA1FFD
:10054000BB1FA617B70710F0A61BB70B881F991F74
:100550005A95A9F780959095BC01CD0108958F9289
:100560009F92AF92BF92CF92DF92EF92FF92CF9382
:10057000DF93EC01688179818A819B816115710526
:100580008105910521F464E279ED8BE597E02DE199
:1005900033EF41E050E00E940D0349015A019B01F5
:1005A000AC01A7EAB1E40E942C036B017C01ACEE24
:1005B000B4EFA50194010E943A03C60ED71EE81EAF
:1005C000F91EF7FE06C081E0C81AD108E10880E8EC
:1005D000F80AC882D982EA82FB82C6019F77DF913E
:1005E000CF91FF90EF90DF90CF90BF90AF909F9012
:1005F0008F9008950E94AF02089580E690E00E94D7
:10060000AF020895A0E0B0E0809360009093610095
:10061000A0936200B09363000895052E97FB1EF42B
:1006200000940E94240357FD07D00E943F0307FC5B
:1006300003D04EF40C9424035095409530952195A9
:100640003F4F4F4F5F4F08959095809570956195FE
:100650007F4F8F4F9F4F08950E946103A59F900D7C
:10066000B49F900DA49F800D911D11240895B7FF94
:100670000C942C030E942C03821B930B0895A1E27F
:100680001A2EAA1BBB1BFD010DC0AA1FBB1FEE1F0C
:10069000FF1FA217B307E407F50720F0A21BB30B57
:1006A000E40BF50B661F771F881F991F1A9469F7D3
:1006B00060957095809590959B01AC01BD01CF012F
:1006C0000895A29FB001B39FC001A39F700D811D2B
:1006D0001124911DB29F700D811D1124911D08954B
:0406E000F894FFCFBC
:0406E4000100000011
:00000001FF
